:100000000C9450000C9400000C9400000C94000020
:100010000C9400000C9400000C9400000C94000060
:100020000C9400000C9400000C9400000C94000050
:100030000C9400000C9400000C9400000C94000040
:100040000C9400000C9400000C9400000C94950398
:100050000C9400001027E80364000A00010000105F
:10006000000110000100000025640048656C6C6F01
:1000700020576F726C64000001002D4E414E004904
:100080004E46000007000100020066000C006002FE
:100090006B0001008102780001007F0284000000F3
:1000A000F894EE27ECBBF1E0FBBFEBBFE5BF8DE0C2
:1000B000A2E0BB27ED938A95E9F780E098E0A0E6FF
:1000C000ED930197E9F7E6E8F0E0859195910097C7
:1000D00061F0A591B59105901590BF01F0010590D3
:1000E0000D920197E1F7FB01F0CFEFE5EDBFE8E0FE
:1000F000EEBFC0E6D2E00C947D00E0E0EABBEBBBD3
:10010000E7BBE8BBE4BBE5BBE1BBE2BBE3BFE2BFEF
:10011000ECBFEFBDEEBDEDBDECBDE7BDE6BDEBBD9B
:10012000EABDE9BDE8BDE2BDE5BDE4BDE3BDE9BFB3
:10013000E5BFE4BFEAB9E0E8E8B9E0E0E0BFE6B96E
:10014000EDB9E6BFE7E2EA93E0E1EA93A2E00E94BC
:100150007F02F20131962F01ECE6F2E0FA93EA9386
:10016000E8E6F0E0FA93EA93F2010E9440050E946B
:100170004D0584E00E944B0228960E94BC02E0E0FC
:10018000EA93A0E00E94C502A0E6B2E00E9401034B
:10019000E0E0EA93A1E00E94C502ACE6B2E00E9472
:1001A0000103A8EEB3E00E942E05D3CFFFCFBA9390
:1001B000AA931A930A93AA81BB8112960E944505BD
:1001C000309759F1AA81BB8114960E9445058F0191
:1001D000309761F00230E0E01E0798F0F8013197A7
:1001E0008F01AA81BB811496ED93FC93AA81BB81F8
:1001F0001296ED91FD913196FE93EE933197AC817D
:10020000A083AA81BB810E944505FF232AF0ED91BE
:10021000FD913196FE93EE9306C0AA81BB81EFEF6C
:10022000FFEFED93FC931981088125960895BA9309
:10023000AA9326970E94520510E0AC85BD85E0E0A8
:10024000F0E0ED93FC93EA89FB893196EA8BFB8B16
:100250003197E4912E2FE03009F415C1E12FE03001
:1002600039F4253211F411E002C00E94FA040AC1E7
:10027000E130A9F4253219F40E94FA0402C112E017
:1002800040E000E02D3211F401E0FCC02B3211F40B
:100290004BE2F8C0203211F440E2F4C002C0E23078
:1002A00039F450E013E0203311F40068EBC003C0D0
:1002B000E33009F0E7C0203310F02A3308F007C01C
:1002C000AAE05A9F502DE22FE0535E0FDBC0E22FD1
:1002D000E33649F40E940105E889F989A481AA93CB
:1002E0000E940705CEC0E33741F40E9401050E9439
:1002F0000D050E944E031E2F0AC0E03761F40E94D4
:1003000001050E940D050E945A031E2F086002601D
:100310000F7730E034C0E43611F0E93611F40460B0
:1003200002C0E53731F4E4E5F0E0EE83FF8315E049
:100330000CC0E83511F4086003C0E83709F0A1C02B
:10034000EEE5F0E0EE83FF8314E002FF14C00E94AC
:1003500001050E941705AB85AA233AF4EA85FB85BF
:100360000E943C05EA87FB874DE2403011F01F5F99
:1003700001C00B7F04C00E9401050E94170500FD0B
:1003800011C0151778F407FF08C002FF04C00B7FE7
:10039000242F115001C020E301C020E20E94FA0482
:1003A0005150EFCF312F01FF17C03030A1F003FFC4
:1003B00006C0EE81FF812591EE83FF8305C0AE81EB
:1003C000BF812D91AE83BF830E94FA04503009F0A3
:1003D00051503150EACF4BC020E3EE81FF810E94A3
:1003E0004905E887F987EE81FF813296EE83FF8326
:1003F000E885F985AA85BB85AE17BF0750F02F5F4A
:10040000A885B985EA85FB85EA1BFB0BEA87FB8794
:10041000EFCF2A3328F003FF02C0295F01C0295D16
:1004200004FD1AC0213320F4A885B985119709F479
:1004300009C0531710F000FF01C013C020E207FFEE
:100440000BC020E3006102FF07C00B7F4A930E94AC
:100450000705503009F051500E94FA04503009F05D
:1004600051503150A885B985129708F0B5CF00FFDB
:1004700008C0503031F05150E0E2EA930E94070585
:10048000F8CF10E0E0CEAC85BD850E9445050E9406
:10049000590564960895FF92F82E26970E945405F8
:1004A0000E941F05309719F4EFEFFFEF23C0DE0124
:1004B00016960E9438058D010E941F05EE83FF836A
:1004C000E0E0E887E987DE011A960E9438050E947D
:1004D0004505FA93EA931A930A93E7EDF0E0FA934D
:1004E000EA93DE011A96A3DE9F01AE81BF81E0E0B0
:1004F000EC93F9010E945B052A96FF900895AA9358
:100500007A80B980A880DD24E8E0CE2E0E946703BF
:100510006624E1E0EA1510F4E8E06E2ADD2019F027
:10052000E1E0EA1509F002C0E4E06E2AA2E3B0E0DF
:100530000E942E05AC2D8FD0A8EEB3E00E942E05B0
:100540000E9426050E942605A0E37ED088E592E061
:100550000197F1F7A0E278D0E62DE062AE2F42D00D
:10056000E4E09E2E38D008D0E2E08E2EE460AE2F7C
:1005700039D004D00C948803A1E001C0A2E032D0AD
:1005800080E49FE10197F1F70895AA932897E0E0AE
:10059000E883E983E0E4EA83E0E0EB83E4E1EC83F1
:1005A000E0E0ED83E4E5EE83E0E0EF83A885AA16C2
:1005B00018F4EA2DE150E887E885F0E0DE01EE0F5F
:1005C000FF1FAE0FBF1FEC91A985EA0FE068AE2FA9
:1005D00009D02A960895E4E09E2AE92DE860AE2F1E
:1005E00001D00895AA93E881EA93A0E019D00C9471
:1005F0009303AA93E881EA93A1E012D0E1E00C947E
:100600009303BA93AA93A881B981EC91E03031F0B9
:10061000ED91A883B983AE2FECDFF5CF2296089534
:10062000AA931A930A93EB81E07F1E2FEB81E29548
:10063000E07F0E2FAA81A12B07D0AA81A02B04D086
:100640001981088124960895AA93A88104D0A881CD
:1006500013D00C949303AA930E946D037A92A0E0A6
:100660000E947703EC2DA881EA2BAE2F0E948A030B
:100670000E9474030C949303AA93E881E460AE2F64
:10068000EADF85E08A95F1F7E881EB7FAE2FE3DFC3
:1006900088EC90E00197F1F70C949303BA93AA9336
:1006A000A991B991EE27FF276D91662311F031963C
:1006B000FBCF0895BA93AA93AA27BB27E991F99192
:1006C0000590002011F01196FBCFFD010895E0E1A7
:1006D000E0B9E3E0E4BBE5BB0895E4EAE6BFE6B7D2
:1006E000E078E9F3E1B10895E4E9E6BF0895AA935B
:1006F0001A9310E0EA81EE0F1E2FE9811E2B106481
:1007000013B9E4E8E6BFE6B7E078E9F3E1B11881B0
:1007100023960895AA93E881E3B9E4E8E6BFE6B733
:10072000E078E9F3E1B1219608950A921A92FA92DB
:100730006A937A938A939A93AA93BA93EA93FA93D1
:10074000EFB7EA930E94520510917E0200917D025C
:100750003091880220917F02E12FA0918902B0910F
:100760008A02F0E0EA0FFB1FAF01E1B1E87FE83059
:1007700011F420E002C0E03119F4E091850210C0CC
:10078000E83111F0E83221F5031780F4E02F0F5F14
:10079000A0918602B0918702F0E0AE0FBF1FEC91EE
:1007A000E3B9E6B7EF70E068E6BF11C0E0918B02F5
:1007B0001E1760F4E0918502E160E0938502E89401
:1007C00020F8E6B7EF70E06AE6BFFBC033C0F9C0BF
:1007D000E03529F4E3B1DA01EC931F5F02C0E034A5
:1007E00071F4E0918B02E1501E1720F0E6B7EF7034
:1007F000E06803C0E6B7EF70E06CE6BFE2C0E83542
:1008000029F4E3B1DA01EC931F5F02C0E03209F48E
:1008100002C0E03309F402C0E83469F4203051F436
:1008200020FE03C0031728F005C0E0918B021E17BD
:1008300008F424E0C0C0E83329F422E0E6B7EF7002
:10084000E068BCC0E83611F0E83711F422E005C0DA
:10085000E03611F0E03791F420E010E0E89420F861
:10086000E0918C02E03029F421E0E6B7EF70E06817
:1008700003C0E6B7EF70E06CE6BFA3C0E03811F04C
:10088000E03929F520FE02C021E095C0E3B1DA018C
:10089000EC931F5FE0918C021E17B0F4E0918D0283
:1008A000F0918E02309711F426E085C0A0E0E0912F
:1008B0008D02F0918E020995E03029F0E6B7EF70D5
:1008C000E06CE6BF7EC002C0689420F802C0E83841
:1008D00009F402C0E83929F4E6B7EF70E068E6BF32
:1008E00070C0E03AA9F4E6B7EF70E06CE6BF689438
:1008F00021F8E0918D02F0918E02309739F0A1E05D
:10090000E0918D02F0918E02099501C026E059C058
:10091000E03B11F422E002C0E83AB9F4E0918F0222
:10092000F0919002309759F0A0E0E0918F02F091A1
:10093000900209953E2FE03011F020E002C026E041
:100940003AC000E0E89420F802C0E83BE1F420FE61
:1009500002C021E030C0E02F0F5FA0918602B0916D
:100960008702F0E0AE0FBF1FEC91E3B9031720F44C
:10097000E6B7EF70E06C05C0689420F8E6B7EF705A
:10098000E068E6BF1EC0E03C11F0E83C89F4E6B741
:10099000EF70E06CE6BFE0918F02F091900230972B
:1009A00031F0A1E0E0918F02F0919002099507C02B
:1009B000E03039F423E0E6B7EF70E06DE6BF68940D
:1009C00021F810937E0200937D0220937F023093E2
:1009D00088020E9459052696E991EFBFF991E991A5
:1009E000B991A9919991899179916991F990199009
:1009F000099018952A93AD85BE85EF85F8890995EC
:100A00000895E889F9893497E88BF98B0895AD85C5
:100A1000BE85EF85F88909950895A889B989149646
:100A20000E944505EE83FF83AE81BF810895A889AA
:100A3000B98914960E944505EA87FB870895DE016F
:100A40001C960E9438050E9445050895A0E30E9467
:100A5000240380E596E40197F1F70895109639F0A4
:100A6000A89580EA9FE00197F1F71197C9F70895DB
:100A70000024AF0DB01D0895F195E195F040089563
:100A80006F2F660F660B762F0895ED91FC911197ED
:100A900008950590F491E02D08957A936A93FA935E
:100AA000EA9308955A934A933A932A931A930A938E
:100AB00008955D814C813B812A81198108810895C7
:00000001FF
